:02000000192ABB
:06000600000000000800EC
:0E000C00213083120313FD00FD0B0A280800AB
:10001A000F3083120313FC004730FD00FD0B132839
:0A002A00FC0B132800000000080082
:1000340083120313F801F9011030FC00710DF80D5F
:10004400F90D7408F8027508031C750FF9020318FA
:1000540032287408F80775080318750FF907031098
:0A006400F00DF10DFC0B2028080040
:10006E0083160313E01B3E28831287134028831246
:10007E0087178316601B462883120713482883129E
:10008E0007178316E01A4E28831287125028831200
:10009E0087168316601A5628831207125828831261
:1000AE000716831641185E288312071560288312DF
:1000BE0007118715032087118316E019692883120B
:1000CE0087136B2883128717831660197128831282
:1000DE0007137328831207178316E01879288312E3
:1000EE0087127B2883128716831660188128831245
:1000FE000712832883120716831641188928831244
:10010E0007158B2883120711871503208711831675
:0C011E00411C93280D20942806200800A6
:0E012A008316031351088A0050088200080053
:1001380083160313DE0105305E020318AA285E0841
:100148005D07840020308000DE0A9F285E085D0776
:1001580084008001DE035E085D07DF000A30F400DA
:10016800F5015B08F0005C08F1001A207808F0003F
:100178007908F1003030F00783165F0884007008B2
:1001880080000A30F400F5015B08F0005C08F1001B
:100198001A2070088316DB007108DC000030710635
:1001A800031DD82800307006031DDB28DD28DE0378
:0401B800AF28080064
:1001BC008316031341105B08E000372083164114AB
:0201CC00080029
:1001CE0083160313D301D4015208F2005208F30030
:1001DE00720884000008203A031DFA2853085404BC
:1001EE00031DFA2807290130D3000030D40072080D
:1001FE0084000008F0007308840070088000F30A81
:10020E007208F100F20A710884000008003A031D1A
:08021E00EF285208F00008006F
:100226002529803083160313D2003829C030D20026
:1002360038299430D2003829D430D2003829803079
:10024600D2003829831603135208013A03191429D8
:100256005208023A031919295208033A03191C29AC
:100266005208043A03191F2922295303F0005208A1
:10027600F0077008D2007008E0003720831641109E
:10028600D50155085407840000080319522955085A
:10029600540784000008DB00DE20D50A44294114F7
:0202A60008004E
:1002A80083160313D701D8015208D9005308DA007E
:1002B80080305306F00080307002031D652900303D
:1002C8005202031873290130D7000030D8005208B1
:1002D800003CD9005308031C013EDA01DA02590830
:1002E800DB005A08DC005408DD009C200630D500ED
:1002F8000030D6005608003C031D84295508003CF0
:1003080003189F2955085407F20001305502F000E0
:100318000030031C013E5602F100700854078400A7
:100328000008F00072088400700880000130D502CF
:10033800031CD6037E295408840020308000570807
:1003480058040319BD29D501D6015508540784005E
:100358000008203A031DB429D50A0319D60AA92989
:100368000130D502031CD6035508540784002D30EC
:0403780080000800F9
:10037C0083160313871107110712871207138713AC
:10038C0083128711071187130713871207120D2089
:10039C000D200D20871607168715032087110D20B9
:1003AC008715032087110D208715032087110D2039
:1003BC0007128715032087110D208715032087113D
:1003CC00871287178715032087110D2087130716AF
:1003DC0087150320871107128715032087110D201D
:1003EC0087150320871107168715032087110D2009
:1003FC00071287150320871187170717871607160B
:0E040C008715032087110D2083164114080068
:10041A0095208A110A128000840AD00A0319D10A87
:08042A00F003031D0D2A080078
:100432002A24BE210C30E0003720831688170817C3
:1004420088160130D2000530D3003830D400132191
:100452001530FB004B30FC00BE30FD00FD0B2F2A97
:10046200FC0B2F2AFB0B2F2A00000130E000372063
:1004720001308316D2000530D3004530D400132159
:100482000230D2000530D3004230D40013210230B2
:10049200D2000730D3004030D40013210230D20002
:1004A2000830D3003530D40013210230D2000A3094
:1004B200D3002530D40013210230D2000B30D300F8
:1004C2002230D40013218312881E902B0130A00009
:1004D2000030A1008312200821040319902B270861
:1004E2008316D200831228088316D300BA30D400B0
:1004F2005421BA30D200E7200130D2000530D300B7
:100502002B30D40013218030F00080308312280673
:100512007002031D8E2A2708093C031C982A023008
:100522008316D2000C30D300BA30D40013218030AD
:10053200F0008030831228067002031DA22A2708C9
:10054200093C0318AC2A02308316D2000B30D300C8
:10055200BA30D40013210B30FB002630FC005D3092
:10056200FD00FD0BB22AFC0BB22AFB0BB22A0000E3
:1005720000008312A70A0319A80A00302806031DE7
:10058200C42A3C302706031D5A2BA90A0319AA0ABA
:10059200A701A80100302A06031DD12A3C302906F2
:1005A200031D1D2BCF0A0319D00AA701A801A90117
:1005B200AA014F088316D200831250088316D30073
:1005C200C230D4005421C230D200E7200230D2001F
:1005D2000B30D300A030D40013210230D2000830F7
:1005E200D3006D30D40013218030F00080308312AC
:1005F20050067002031DFF2A4F08093C031C092BF9
:1006020002308316D2000630D300C230D400132148
:100612008030F0008030831250067002031D132BCD
:100622004F08093C03181D2B02308316D2000530F7
:10063200D300C230D4001321831229088316D200BA
:1006420083122A088316D300C930D4005421C9303A
:10065200D200E7200230D2000B30D300B730D400F2
:1006620013218030F000803083122A067002031DAD
:100672003C2B2908093C031C462B02308316D2006E
:100682000930D300C930D40013218030F00080300B
:1006920083122A067002031D502B2908093C0318F5
:1006A2005A2B02308316D2000830D300C930D4004E
:1006B20013218312081F682B01308316D2000530E4
:1006C200D300AD30D40013218312A001A101881FF1
:1006D2008F2BA001A101A701A801A901AA01CF01A5
:1006E200D00101308316D2000530D300A330D400EC
:1006F20013210230D2000B30D3006A30D400132110
:100702000230D2000B30D3005E30D400132102300D
:10071200D2000830D3005B30D40013216B2A83123D
:10072200881FB82BA001A101A701A801A901AA0154
:10073200CF01D00101308316D2000530D3005130F1
:10074200D40013210230D2000B30D3006130D40028
:1007520013210230D2000B30D3006730D4001321B2
:100762000230D2000830D3006430D4001321642A4E
:02077200B92BA1
:1008540020308400503083120313F000BF3083161D
:10086400D0000330D1000D22A03084001A3083124E
:10087400F0000F308316D0000430D1000D220800A0
:04077E00013400340E
:0607820030343034003475
:040788003A340034CB
:04078C000034003401
:0407900000340034FD
:10079400523475346E346E3469346E3467342E34A6
:0407A4002E340034BB
:0607A8003034303400344F
:1007AE00773465346C3463346F346D3465340034AF
:0407BE003A34003495
:0607C20030343034003435
:1007C800533474346F34703477346134743463342C
:0407D800683400344D
:0407DC0000340034B1
:1007E000533474346134723474343F3420342034DC
:0407F000203400347D
:0607F40030343034003403
:0607FA00303430340034FD
:06080000303430340034F6
:06080600303430340034F0
:06080C00303430340034EA
:06081200303430340034E4
:06081800303430340034DE
:06081E00303430340034D8
:10082400533474346134723474343F342034203497
:040834002034003438
:10083800703461347534733465346434203420344E
:040848002034003424
:06084C00303430340034AA
:02400E004A2F37
:00000001FF
